:020000042000DA
:1000000018481949086006C881F30888104717483E
:100010000068002801D01648F3E71649164A002068
:1000200000E001C19142FCD1144988471449884736
:100030001449884700BEFDE7201E0020201E002036
:10004000101F0020000004200000042000000420F5
:100050000010042000100420001004200000000004
:10006000704700000001002008ED00E0000000D013
:1000700000000000101F0020F4220020E5170020DF
:1000800095020020DD17002006005250ABB36053EC
:10009000741D002006005250861C0302841D00209F
:1000A000060052505422A29D8C1D0020F2EB887154
:1000B000FC1D00201C1E00203800002090A31AE721
:1000C0000000000000000000000000000000000030
:1000D0000000000000000000000000000000000020
:1000E0000000000000000000000000000000000010
:1000F0000000000000000000000000000000000000
:10010000002004200F000020CB010020CD010020A2
:10011000C9010020C9010020C9010020C901002037
:10012000C9010020C9010020C9010020CF01002021
:10013000C9010020C9010020D1010020D301002005
:10014000C1010020C1010020C1010020C101002027
:10015000C1010020C1010020C1010020C101002017
:10016000C1010020C1010020C1010020C101002007
:10017000C1010020C1010020C1010020C1010020F7
:10018000C1010020C1010020C1010020C1010020E7
:10019000C1010020C1010020C1010020C1010020D7
:1001A000C1010020C1010020C1010020C1010020C7
:1001B000C1010020C1010020C1010020C1010020B7
:1001C000EFF30580103800BE00BE00BE00BE00BECA
:1001D00000BE00BEF0B5C646160000B504001F0004
:1001E0000268EFF3108172B61368002BFCD0BFF3E6
:1001F0005F8F0423E3562268002B2BDBBFF35F8F56
:100200000020106081F31088D02212061278002599
:1002100052B290469A420ED1002080BCB846F0BD42
:10022000BFF35F8F156081F310883000390000F054
:10023000DFFD0028F0D12268EFF3108172B6136859
:10024000002BFCD0BFF35F8F237922687F2BE7D987
:10025000434602E0D0231B061B682371BFF35F8F68
:100260000023136081F310880120D6E70268EFF3C2
:10027000108172B61368002BFCD0BFF35F8FFF2391
:1002800003710368BFF35F8F00221A6081F3108847
:1002900040BF7047F8B5D024802501F09BFB2406B1
:1002A000AD04192000F04AF865621248656101F05A
:1002B000E1FBFA2000270026C00000F01BFD0E48DD
:1002C00001F0D8FB338B0D49B88A98478047FA2054
:1002D000C00000F00FFD0A4801F0CCFB338B094948
:1002E000B88A98478047338B0749B88A9847804730
:1002F000A561FEE7FC1C0020101D002045580000F1
:100300001C1D0020435800004643000010B5402447
:10031000074A83009A181268C0005440C022224045
:10032000044C1B191A60044BC018416010BDC04634
:1003300004C0014004D00140004001400123D0220C
:100340008340120693629361084A83009A181168E9
:100350004022514080320A400549C0005B181A60B3
:10036000044BC018052343607047C04604C00140D9
:1003700004D00140004001400FB400B5084883B0EC
:1003800001F078FB049B002B07D005A91800019110
:1003900001F00AFA034801F06DFB012001F01CFA9C
:1003A000281D0020381D002070B58C461600EFF384
:1003B000108472B60F490B68002BFCD0BFF35F8F1F
:1003C0006346DB08C5180722C05C63461A40012358
:1003D00093401A000240034207D118432870BFF32C
:1003E0005F8F0A6084F3108870BD61463000FFF7AC
:1003F000C3FFC0462C0100D0044A1078431CDBB276
:10040000172B00D9102313707047C046201E002000
:100410000021044B044ABFF35F8F02C39342FAD119
:100420007047C046000100D0800100D0084B094A47
:100430001360094A1360094A1360094A1360094AA4
:100440001360094A1360094A1360094A1360704730
:100450008080808000E400E004E400E008E400E044
:100460000CE400E010E400E014E400E018E400E034
:100470001CE400E01F2318401E3B8340002905D0E8
:10048000C021044A4900535013607047802201493B
:100490008B50FAE700E100E070B50D00EFF3108635
:1004A00072B60F4A1368002BFCD0BFF35F8F0D4B61
:1004B00010309B6884001B590B4A934203D09D4225
:1004C00001D000F099FF074B9B681D51BFF35F8F70
:1004D000BFF35F8F0022024B1A6086F3108870BD55
:1004E000240100D000ED00E0C1010020F0B5454638
:1004F000DE4657464E46E0B50D0083B0EFF3108858
:1005000072B6604A1368002BFCD0BFF35F8F5E4B5E
:100510005E499A68030010339F00D45999468C4273
:100520003ED0AC424FD05A4EA21B2F2A38D8594B3E
:100530001A689C4613000122824013401F22024089
:1005400001209A4690406346802283469850BFF32C
:100550005F8FEFF305830193002B36D0994501D0CF
:1005600000F04AFF012322009A439068854208D197
:1005700076E04B005B189B00F3189868854236D0F4
:100580001A00062151560029F3DA854254D0534609
:10059000002B27D0C02259463E4B5200995019607B
:1005A000394B9B68DC51BFF35F8FBFF35F8F002235
:1005B000344B1A6088F3108803B0F0BCBB46B246D7
:1005C000A946A046F0BD0C00EAE7220001339A4399
:1005D00090688542D5D106201056130000280ADA0B
:1005E0000C0031E0802359462A4AD150D8E7062032
:1005F0001856002821DB4200111889007518894619
:10060000A9689960E979D97106216956997100291B
:1006100024DBAD88F11A6D052D154D4449190905E6
:100620001D4D490D2943998013181C4A9B001178D0
:10063000F31899711070AAE713000199002914D1D9
:10064000FF3191711649918014490A789A71154ABF
:100650009B1B5B415A43120D0A7098E71049E2E771
:100660000620105613000028C5DA0F4A0F49D21A87
:10067000083A5002400D014399800D4952080A433F
:10068000DA8084E7240100D000ED00E0C101002001
:10069000241E002000E100E000E0FFFFF022002027
:1006A00001BDFFFFAAAA00005E1E002000F0FFFFB0
:1006B00000F8FFFF0123034370B59C46EFF305816B
:1006C000EFF3108572B6214A1368002BFCD0BFF3FC
:1006D0005F8F1F4B04001F4AE41A64416243120DEE
:1006E0001D4C8900A66852B2765866451CD006217A
:1006F000595691421CD012215956914222D01E21A6
:100700005956914220D02A2159560324914210D0A3
:10071000124B19781A708171BFF35F8F00220B4B57
:100720001A6085F3108870BDA3680D4C5C50EFE72C
:1007300000246100091989005B18FF21997109499A
:100740009980E5E70124F4E70224F2E7240100D0D0
:10075000241E0020AAAA000000ED00E0F0220020E4
:10076000C101002001BDFFFF024BC91889000160D3
:100770007047C0464000003470B5114C114DAC427A
:100780000FD2FF262368002B0CD0FFF735FE0100A7
:100790002000FFF7E9FFA680BFF35F8F0834AC426B
:1007A000F0D370BDFFF728FE01002000FFF7DCFF4B
:1007B0002671BFF35F8F0834AC42E3D3F1E7C04644
:1007C000C81E0020D81E00200A4B1968EFF31080C5
:1007D00072B60A68002AFCD0BFF35F8F1B68BFF3B4
:1007E0005F8F00221A6080F3108840BF0020002134
:1007F0007047C046E4220020F0B5DE4657464E461C
:100800004546E0B585B0EFF3058303221A40B34BAC
:1008100091005F58012393409B4602925A468846B6
:10082000AF4B1A60AF4B03935B46AF48436308235B
:10083000FE5E002E37DABB881BB2002B00DBA4E083
:10084000BB79002B00D0E5E00823F95E002920DB0E
:100850004B007A695B18DB00D3189D68DC686B1C61
:1008600000D104E1A04801004144826A0B69AE1A3C
:100870009B1A9E4215D30123026A029883401A42B2
:100880000FD0994800F03EFB8C4202DCCCD185426F
:10089000CAD940BF05B0F0BCBB46B246A946A04687
:1008A000F0BD0D61EDE77A69730091469B19DB009D
:1008B00099444B469C68DD6800F024FB8D42BADC0D
:1008C00000D1F6E0002D00DADBE04A464B465269E3
:1008D0001B699246039A934200D1CCE04A46082114
:1008E000785E528800045146104398470090019169
:1008F0000099019A0B00134300D1C2E013000A00D3
:10090000002B00DBD9E020002900801A99414B46DA
:100910009860D96000229B5E002B00DA8BE75D00B7
:100920007C69EA18D200A21800949468D268A246A2
:100930008A4200DD7FE702D1844200D97BE70824A8
:10094000A4463B81BC44009C00972F006546B446FA
:100950003E0006E05E00F218D200A2189768D26846
:10096000BA468A4207DC00D1B4E0F318DB00E51890
:10097000E35E002BEEDA66464A46009F13802E8027
:10098000BB881BB2002B00DA5AE73A69EFF31081FB
:1009900072B61368002BFCD0BFF35F8F0123BE88B3
:1009A0005B42BB8036B23B69BFF35F8F00221A60A7
:1009B00081F31088002E00DA42E73B0008333A004A
:1009C00099467D6973009B190824115FDB00484636
:1009D000EB18002913DB9C680093A446DC6806E052
:1009E000A34240D00023F95E3800002906DB4F0007
:1009F0007F18FF00EF19FB68A342F1DD009B068022
:100A000000201E5E1980002EDCDA1700BB79002B57
:100A100000D119E70023BB710823F95E4B1C00D1FC
:100A200037E73D000835AC467C6903E084464B1C43
:100A300000D109E74B005B18DB00E0180A00E15E1B
:100A400043881BB2002BF1DA01256D42EE17856059
:100A5000C66008257B5F9342E9D0634619803B89D5
:100A600003803A81E3E7BB686345BBD9C6E7631CF3
:100A700000D0F7E605E7534650461B699847002823
:100A800023D14B461B883A693B81EFF3108372B642
:100A900011680029FCD0BFF35F8F49467A880A802D
:100AA0003A697E80BFF35F8F0021116083F3108865
:100AB000C1E6844200D805E7BDE60B4800F022FA03
:100AC000009B019CC018614121E753460CCB00926A
:100AD00001930DE7824500D847E74CE7D02200207C
:100AE0003C700540F90700200040054070B52D4CD2
:100AF0002569002D04D00A212B48FFF735FE70BD73
:100B00002A4E0321294800F0F3F9E660FFF774FC50
:100B1000274B0322C018D02322701B061B6801211B
:100B20006370244B8000A3600F2320610220638048
:100B300063694942A18019800231198647311D83BA
:100B4000585218315A5275325C3999521832013163
:100B5000995218320131995218320131995208359F
:100B600018329D520231183299521832013199527D
:100B7000183201319952183201319952183201312B
:100B800099521832013199520B4B0C49DC600130FB
:100B90003562FFF781FC01210320FFF76BFC084B56
:100BA0001D60A8E76C1E0020E422002000400540E4
:100BB00040000034FFFF1000D0220020F907002081
:100BC0003860054070B582B000920193010002695F
:100BD000EFF3108472B61368002BFCD0BFF35F8F65
:100BE0000223C85E0D6900283FDB4A6943001600F6
:100BF0001B18DB00D218F35A4B80BFF35F8F002322
:100C00002B6084F31088069B1361079B5361009B44
:100C1000019C9360D460538801335B045B0C1D1C02
:100C2000002B20D0ACB20304558023430D69EFF3B1
:100C3000108C72B62C68002CFCD0BFF35F8F8C88B0
:100C4000148088800A69BFF35F8F002010608CF3E6
:100C500010880A7801309040CA680849521810601C
:100C6000180002B070BD0125DCE7BFF35F8F0023E1
:100C70002B6084F31088013BF2E7C0463C20000063
:100C800010B543890A1493421ADD53009B18426938
:100C9000DB00D3180469EFF3108C72B62268002AC7
:100CA000FCD0BFF35F8F5A88090494B2090C8A42C2
:100CB00008D00369BFF35F8F00221A608CF310889D
:100CC000002010BD094A22435A8001230269837122
:100CD000BFF35F8F002111608CF310880278044904
:100CE0009340C268012052181360EAE70080FFFFBA
:100CF0003C200000F0B5C64600B582B0040000F00C
:100D000009F9FA2206000F002000002300219200BA
:100D100000F0D0FC8019794104000D1E02DA012494
:100D20002E4D644206267642F71736196F41AF42C0
:100D300014D811D000F0EEF832003B00121A8B41AB
:100D4000002B15DC002B46D02000290000F022F9F2
:100D500002B080BCB846F0BDA642EBD90026002701
:100D600000F0D8F832003B00121A8B41002BE9DD6D
:100D700000F0D0F832003B00121A8B41002B0ADB46
:100D800000230193164B3200009316483B00FFF7F7
:100D900019FF0130D8D000233900B0469C46124AD2
:100DA0001248536A994204D8966A4645CCD2994271
:100DB000CAD10668EFF3108772B63368002BFCD0F7
:100DC000BFF35F8F0368BFF35F8F66461E6087F3D4
:100DD000108820BFE5E7002AB6D0C9E7FFFFFF7FF4
:100DE000C90700206C1E002000400540E4220020BE
:100DF000F0B5CE46474680B504000D0085B0EFF350
:100E000005868946002E10D0364900204B6AAB4239
:100E100006D38A6A5B1B591E8B41A242404118438C
:100E200005B0C0BCB946B046F0BD2F4FFB683A785C
:100E300098461800039200F065F8039A131D424685
:100E40009B009B5822001B1A9C462B00121A8B41B8
:100E50009E4210DC0DD020BF224A0020536A4B4531
:100E6000DED3926A5B1B591E8B41A242404118435C
:100E7000D6E79445EFD900F04DF822002B00121A66
:100E80008B41002B1BDB00230193184B22000093A6
:100E900038002B00FFF796FE002810DD114B5A6A30
:100EA0004A451CD39B6AA34217D301003800FFF7C1
:100EB000E7FE0C4A0020536A4B45B1D3D1E7094AFB
:100EC0000020536A4B45ABD30020926A5B1BA242C1
:100ED00040415A1E93411843A2E74A45E5D120BF3D
:100EE000E3E7C046004005406C1E0020C907002013
:100EF00010B5024A0248FFF757FA10BD3C1D00200A
:100F0000982200200300416A0A00986A596A8A42BE
:100F1000FAD17047034B596A0A00986A596A91429C
:100F2000FAD170470040054070B505000E00184A20
:100F3000536A1900946A536A8B42FAD1200019004F
:100F40002C00350024184D41AB4216D813D0104B5D
:100F50002A005B6A9D4203D90D494B6A9342FCD338
:100F6000934207D10A4A02E0516A994202D1916A3A
:100F7000A142F9D370BDA042E9D9054B5B6A1C00C0
:100F80005A1CEFD0012201246442E5175242E3E7E4
:100F900000400540064A536A9942FCD807D1044BE9
:100FA00002E05A6A914202D19A6A9042F9D8704797
:100FB00000400540F8B5040006200D0000F06EF971
:100FC000002843D0364B3749E3185A1E93418022FC
:100FD0005B429B0D12049B059B18334A1360334AF6
:100FE000136018000A689043FBD12D4B304AE31878
:100FF00059424B4180215B0049000620995200F084
:101000004DF92900C00000F0C7FA0130C3091ED114
:10101000402701226262A362266BF30722D4E36AAF
:10102000244B0620E51800232B60266300F036F9D8
:101030003900800000F0B0FA7023E26A5A400E33A3
:1010400013402B601C4B23630323A364F8BD1B4A8E
:1010500093421DD900231A4A1A4F6262A362266B7B
:10106000F307DCD5184B144AE3181A60656AA36AC3
:101070000620AD01ED1800F011F9144900F08CFACA
:101080000100A80200F088FA0021FFF74DFFC6E733
:1010900040069A01800E17181A000300BAE7C046EE
:1010A0000080FCBF08C0004000E0004000F00040AD
:1010B000E82200202C10000001030000FEFF0000C9
:1010C000FFFF0000C0FF3F00303000004E0E000068
:1010D000F8B5DE464E4645465746E0B505008B4618
:1010E00018000A99914600F057FA0A9B6C001E02FC
:1010F0006419304BA400E418636880469E4200D90E
:1011000066602F1FFBB29A46012B2FD9C023802285
:10111000294FAD009B0179591201E3181A6000298B
:101120001BD14B4622685B015340E02213408022D2
:101130005201A21813605346012B2FD9802380221D
:101140009B01E31812011A60434666607B51F0BCB4
:10115000BB46B246A946A046F8BD786900F01CFA25
:10116000013043001B18033BFDD2DAE75B46012B3D
:10117000CCD1C02303229B01E3181A60023AA36872
:101180001A42FCD04A46236852015A40E0231340D9
:1011900080225201A218084F1360AD005846032365
:1011A000216841400B40136001228240A3681A422B
:1011B000FCD0C3E7008000409C220020F0B5D6465A
:1011C0004F464646440098462418324BA400E41883
:1011D00063688A469146C0B5FF2B02D880235B0026
:1011E0006360061FF6B2012E2FD9C02380222A4F3A
:1011F00085009B0179591201E3181A6000291BD15F
:101200004B4622685B015340E0221340802252018A
:10121000A2181360012E30D9802380229B01E3188D
:1012200012011A6080235B00636043467B51E0BC7F
:10123000BA46B146A846F0BD786900F0ADF9013074
:1012400043001B18033BFDD2DAE75346012BCCD1F8
:10125000C02303229B01E3181A60023AA3681A42D2
:10126000FCD04A46236852015A40E02313408022B2
:101270005201A218084F13608500504603232168CD
:1012800041400B40136001228240A3681A42FCD007
:10129000C2E7C046008000409C220020014B800035
:1012A000C05870479C220020F0B5C646040000B527
:1012B0002348160098460D0000F06EF9010030003A
:1012C00000F06AF94346069A1B04120313439C4636
:1012D00023680600002B22DB1A4B1B48E218531E22
:1012E0009A4180235242120B9B011203D218174BD2
:1012F0001A60174B1A60130001688B43FBD121223F
:10130000144B2560E318A6601A602268002AFCDAF4
:101310006246E26008221A6080BCB846F0BD3F23F6
:1013200022681340AB42D7D1A3681B051B0D834233
:10133000D2D1EE22E368D20213406345CCD1EBE771
:10134000001BB7000040FDBF08C0004000E00040A7
:1013500000F00040043000008023024A9B000B4351
:10136000D362704700800540002310B50100988AC1
:101370001B8B984710BDC046162310B50100188876
:101380005B88984710BDC046F8B54746CE4680B545
:101390000F1E18D01423994604330400002501269B
:1013A00098464B461888434621681B88984701C4D5
:1013B000431E984101350640AF42F2D13000C0BC17
:1013C000B946B046F8BD0126F8E7C046AA23064A4A
:1013D0001B0113608D235B00D3600449044B19602B
:1013E0005368002BFCDA70470040024000B0FA005E
:1013F000006002407047C04610B50148FEF7BCFFD0
:10140000601D002070B5074D074EB54209D200247B
:10141000013E761BB608013608CD01349847B44228
:10142000FAD170BDD81E0020101F0020054B064ABF
:1014300006491A60064A074B1A6010000B68984369
:10144000FBD1704700E00040BFCDFBFE08C000406C
:10145000FE7F3C0000F00040044BDB6C002B03D10E
:101460008022034BD2021A607047C0460000115020
:101470004C201150044A054B1A60054A1368DB01E1
:101480008033FBD17047C046FFFFFF0100F00040F2
:1014900008C000404022034B9A675A671A67DA6611
:1014A0007047C04600F0014010B5FEF7B1FF10BD17
:1014B000002310B5294C82B0A367FFF787FF0122F4
:1014C000274B1A60636C012BFCD10322254B1A6059
:1014D000224A936B012BFCD1013300930121224A54
:1014E00022480433FFF7E0FE052301210093204A40
:1014F0002048FFF7D9FE0022022104201E4BFFF7EF
:101500005DFE0022012105201C4BFFF757FE002243
:10151000002107201A4BFFF751FE0022002108206E
:10152000174BFFF74BFE8023DB00009300220021C6
:101530000920134BFFF7CCFD0022104B00210620A1
:10154000FFF73CFE0420FFF7A9FE0E4900F024F847
:1015500001000020FFF700FF02B010BD0080004036
:101560003CB0004030B00040002F6859008002407D
:10157000008C864700C00240001BB700405973072B
:10158000006CDC0240420F0001480421014B184767
:10159000901E002089130020114A936F9B0813D2DC
:1015A00010665166002905D0FFE7FFE7FFE7516F9E
:1015B000106F704704B5002801D00020C04300F030
:1015C0006BFB002104BDC046F0B5146E556E576F1D
:1015D000166FFFF7E5FF1466556657671667F0BD8F
:1015E000000000D0132370B51D78012D19D014DD33
:1015F0001F48FFF7C1FE06001E48FFF7BDFE1E4C48
:1016000080223100200000F0C1F8022D2DD01B48AF
:10161000FFF7AAFE1A4B186070BD1A4B164CA36454
:10162000F5E7184B144C23606360A360E36023610B
:101630006361A361E36123626362A362E362236384
:101640006363A363E36323646364A364E364236564
:101650006365A365E36523666366A366E366236744
:101660006367A367E367A364D1E7064BA364CEE790
:101670005344000053460000902000204C330000EB
:10168000E02200208916002007B5604601880A0A7A
:101690000230DF2AFAD1C9B2820804D30288408816
:1016A0000004104300E00068014A5050039007BD59
:1016B0009020002051434343C9188C46110C83B23B
:1016C0004B4310B4040C614392B280B25043624366
:1016D0001C041B0C001910BC59411304120CC01837
:1016E0005141614470470000132310B51C78134822
:1016F000FFF742FE012C0BD004DD010080221048D0
:1017000000F044F80F48FFF72FFE0F4B186010BD94
:101710000B4C01005422200000F038F80B4B63659D
:10172000A365E36523666366A366E3662367636771
:10173000A367E3672362E361E4E7C0465346000022
:10174000902100204C330000E0220020511700209F
:1017500007B5604601880A0A0230DF2AFAD1C9B209
:10176000820804D3028840880004104300E0006827
:10177000014A5050039007BD9021002001480421E8
:10178000014B1847A01E002089130020014B5B6805
:1017900018470000A01E002010B5002800D110BD81
:1017A00000F01EF9FBE7C04610B5094A03001468B3
:1017B00084B0002C08D0012200910648524203A9AF
:1017C000A047012004B010BD00F054F90020F9E753
:1017D000CC2200209917002000BEFDE710B5FFF7CE
:1017E000FBFFC04670B5FFF70DFE074D074EB54233
:1017F00009D20024013E761BB608013608CD01341B
:101800009847B442FAD170BD101F0020101F00206D
:10181000030010B5080011001B68984710BDC046B2
:10182000F8B5437D07000D001600002B38D0002AC4
:101830001ADD0B780A2B18D00020012E09D00124C4
:1018400021006B5C01340A2B1AD0B442F8D18642D5
:1018500003DD311A3B6828189847AD19013D2B78F4
:101860000D3B5A4253413B75F8BD037D002BE3D13C
:1018700002210E483B689847012EEED00120DEE79A
:101880006B1E5B5C0D2BE0D0884203DA091A3B68C3
:1018900028189847054802213B6898472000D4E75C
:1018A0000368110028009847DEE7C046DC1D0020D1
:1018B000F0B54646D6464F46C0B582B090461C00AD
:1018C00006000D00FFF726FB00232F4A12184B419C
:1018D000002B02DA01222D4B52422D4908008A4684
:1018E000FEF778FC81466B1C03D1300000F0D6F97E
:1018F0000500002C27D0274F274B1C68002C18D040
:101900004346002B21D1254B984602E02469002C48
:101910000FD02368002BF9D043461B68002B01D061
:101920009C42F3D120002A003100B8472469002CE2
:10193000EFD14B46002B23D1280002B0E0BCBA46C1
:10194000B146A846F0BD164FD6E7144B984602E0C4
:101950002469002CEDD02368002BF9D043461B6886
:10196000002B01D0A342F3D12A0031002000B84758
:101970006B460A222000DA71D91D093AB847E7E719
:101980005046FEF773FCD7E740420F00FFFFFF7F92
:10199000D01E002021180020C4220020C8220020D0
:1019A000111800200A4A1368002B05D10CE01A0018
:1019B0001B691032002B07D08342F8D1002902D1D5
:1019C00018691060196170470029FCD01060FAE7AF
:1019D000C422002010B500F037F9012010BDC04628
:1019E000F0B5CE46474680B583B06B460600DD1D98
:1019F0002870FFF78FFA0023194A12184B41002B69
:101A000002DA0122174B5242174908008946FEF7B5
:101A1000E1FB164B80461C68002C14D0144F02E0EA
:101A20002469002C0FD02368002BF9D03B68002BD1
:101A300001D09C42F4D1200001222900FFF7F0FEE2
:101A40002469002CEFD14346002B05D1300003B0B0
:101A5000C0BCB946B046F0BD4846FEF707FCF5E706
:101A600040420F00FFFFFF7FD01E0020C422002055
:101A7000C822002070B5040000F010F90123010015
:101A8000050001222000FFF713FF084B1C68002C03
:101A900006D06368002B05D098472469002CF8D144
:101AA000280070BD2469002CF3D1F9E7C42200207E
:101AB000F0B5002915DD0E4B0D271A680D4B0E4CA5
:101AC000D3185D426B41451820215B001E5F0478EE
:101AD000A64207D093691942FCD101301460A84294
:101AE000F5D1F0BD93691942FCD11760F2E7C04609
:101AF000EC2200200080FCBFE82200201F4B30B504
:101B00001B680D1E9C462ADD441E102100201C4B24
:101B10001A689369194214D1013093691942FCD1B2
:101B2000136823548542F4D16346002B07D0502319
:101B30009363516B183B0B401249521813602800F5
:101B400030BD6346002B07D050239363516B183B85
:101B50000B400C49521813600028F1D10BE0002B08
:101B600009D05022064B1B689A63596B183A0A40F9
:101B700004495B181A6003204042E1E790220020EC
:101B8000EC22002034100000064B10B51B68002B1F
:101B900006D00021044A12689163044A10689847ED
:101BA00010BDC04690220020EC220020942200208C
:101BB0000822034B19688B691A42FCD17047C04652
:101BC000EC22002070B51A4E1A4B32680400D3186C
:101BD00058424341184D143318002B68002C02D092
:101BE000002B0FD070BD002BFCD0060000219463A9
:101BF000FEF740FC30001149FEF778FC104B2C60DA
:101C00001C60EFE72C6004000D4B19600B49FEF7D8
:101C100043FC01212000FEF72DFC502233689A631B
:101C2000596B183A0A4007495B181A60DAE7C04650
:101C3000EC2200200080FCBF90220020891B0020A5
:101C400094220020341000000D4B10B51B780D4B72
:101C50000D4C1B780D4B02211B780D4B002023608F
:101C6000FEF754FB02210120FEF750FBE121206822
:101C70004902FFF79FF901210648FFF793FE10BDC7
:101C8000181E0020141E0020EC220020101E002030
:101C900000400340B01E00207047C0460300844649
:101CA0009B070BD00300032102E001330B4206D057
:101CB0001A78002AF9D16246981A70470300196809
:101CC0000C4A0D488A188A4302420FD15968094AC2
:101CD00004338A188A43024208D15968054A0433FA
:101CE0008A188A430242F1D000E001331A78002AB0
:0C1CF000FBD1E0E7FFFEFEFE808080805C
:101CFC0052756E6E696E672066726F6D205352411D
:101D0C004D000000457869742058495000000000CF
:101D1C00456E746572205849500000000A2A2A2A20
:101D2C002050414E4943202A2A2A0A000A0000006A
:101D3C00486172647761726520616C61726D2025F7
:101D4C006420616C726561647920636C61696D6596
:101D5C0064000000486172642061737365727400E2
:101D6C0052656C6561736500322E322E30000000B6
:101D7C007069636F000000007573625F31000000D2
:101D8C004A756C2020312032303236005541525485
:101D9C0020737464696E000055415254207374644E
:101DAC006F7574005541525420737464696E202F02
:101DBC00207374646F75740006005250D3F0754232
:101DCC006C1D002006005250BBFF3CB67C1D002051
:101DDC000D0A00000600525053B4F4A1B01D0020AF
:101DEC0008005250120000000800525092100000DF
:101DFC00C41D002088000020D01D0020940000206D
:101E0C00A0000020F41D0020EC1D0020E01D00208F
:101E200010000000000000000000010000000000A1
:101E300000000000000002000000000000000000A0
:101E40000000030000000000000000000000FF0090
:101E50000000000001B5486801318E460047704619
:101E600009380149884701BDB5060020000000007F
:101E70000000000000000000000000000000000062
:101E8000101F002000000000000000000000000003
:101E9000503300004C330000543300005233000034
:101EA0004D5300004D430000533400004334000004
:101EB000B11A0020B11B0020FD1A0020C51B002014
:101EC0000000000000010000000000000000000011
:101ED00000000000000000002D1400205914002014
:101EE000891500207D170020E5150020E916002047
:101EF000B11400207514002095140020A9140020AE
:101F000079070020ED0A0020F51300202D040020A1
:0400000520000001D6
:00000001FF
